:100000000010002019040000FB130000FB13000087
:10001000FB130000FB130000FB130000FB130000A8
:10002000FB130000FB130000FB130000FB13000098
:10003000FB130000FB130000FB130000FB13000088
:10004000FB130000FB130000FB1300008102000003
:10005000B5020000FB130000FB130000FB130000BF
:10006000FB130000FB130000FB130000FB13000058
:10007000FB130000FB130000FB130000FB13000048
:10008000FB130000FB130000FB130000FB13000038
:10009000FB130000FB130000FB130000FB13000028
:1000A000FB130000FB130000FB130000FB13000018
:1000B000FB130000FB130000FB130000FB13000008
:1000C000FB130000FB130000FB130000FB130000F8
:1000D000FB130000FB130000FB13000010B5054CE0
:1000E000237833B9044B13B10448AFF300800123E4
:1000F000237010BD7810002000000000C81600001A
:1001000008B5034B1BB103490348AFF3008008BD9A
:10011000000000007C100020C8160000A3F5803A03
:10012000704700BF174B002B08BF134B9D46FFF7CE
:10013000F5FF00218B460F461348144A121A01F0AE
:10014000A8F90E4B002B00D098470D4B002B00D088
:1001500098470020002104000D000D48002802D01F
:100160000C48AFF3008001F0FDF82000290001F0F9
:1001700023F901F0E3F800BF0000080000000000D0
:100180000000000000100020781000209C110020CA
:10019000000000000000000030B58BB001213048A5
:1001A00000F06CFB01212F4800F068FB01212E4874
:1001B00000F064FB012304220021032000F064FE10
:1001C00001222A4D00231146032004AC00F05CFEFE
:1001D0000FCD0FC495E803004FF4165384E80300D5
:1001E0000024234D04A928468DF81040069301F001
:1001F00017F840F203130D2221466B65684601F0A3
:1002000048F969461B4800F0D7FE174800F04EFC3D
:100210004FF47A74B0FBF4F440F6B8304443B4F5CC
:10022000803F04D34FF49461134801F0EDF84FF48C
:100230008051104B0E48DC61DA6842F00102DA604E
:10024000C26C42F00602C2640C4AC2F8801111600E
:10025000012205215A6000F07FFF0BB030BD00BFC6
:100260000012040000D204000062040030150000F7
:1002700000C4004000040140BC14000000E100E0A4
:10028000094B1A6912060DD5084ADB69084811683E
:10029000DBB24354136811680133B3FBF1F001FB87
:1002A00010331360704700BF00C40040941000205A
:1002B0009C1000200B490B695B0611D50A4B18688E
:1002C0001A6890420CD01A680848825CD2B24A631D
:1002D0001A6819680132B2FBF1F001FB10221A60B2
:1002E000704700BF00C40040981000201C1100207F
:1002F0000C4B1A681968013202F07F028A420FD053
:100300001A68094988541A68013202F07F021A609B
:10031000064A106940065FBF1B68CB5CDBB25363C3
:10032000704700BF981000201C11002000C400403E
:10033000014801F04BB800BF2015000010B500F0D7
:1003400019FD01210F4800F099FA01220020114601
:1003500000F0E4FC01220C4C1146A36A002023F4B7
:10036000803323F0030343F00203A36200F0D6FCC2
:10037000A36A002023F4801323F00C0343F0080346
:10038000A36210BDD0433E0000800C4013B5012293
:10039000164B1A6400F0EAFD044601A800F0BEFD09
:1003A0000F2C12D99DF80430022B0ED99DF8052090
:1003B000022A01D1042B08D00D4AD2F8C03023F014
:1003C000500343F01003C2F8C03000F099FF00F072
:1003D0001DF801F034F800F07DFFFFF7AFFF00F0EB
:1003E00069FF02B0BDE8104000F004B800000C4006
:1003F00000800C4008B50121034800F03FFABDE839
:10040000084000F0EEBF00BF00D204000121014807
:1004100000F034BA00D2040008B500F0B9F8124B6D
:1004200012498B4212D30020114B12498B4218D330
:10043000FFF778FE186850F82240586840F82240CC
:10044000013298688242F5D30C33EAE70022F8E7DC
:100450001C6844F8220001325C68A242F8D30833D9
:10046000E4E70022F8E700BFD0160000DC16000029
:10047000DC160000DC16000000487047006CDC024F
:10048000254AD36A03F47053B3F5805F3AD0B3F5CD
:10049000005F04D0B3F5006F0BD1204B00E0204B80
:1004A0001B681D4A1068C0F382300130B3FBF0F0C6
:1004B0007047D36803F4E063B3F5407F25D008D8D4
:1004C000B3F5807F0ED0B3F5007F20D0A3B1002319
:1004D000E7E7B3F5806F1CD0B3F5A06F114B18BFE1
:1004E0000023DEE7104B1148D3F8FC20104BB2F18B
:1004F000985F38BF0346D4E70B4B0E48D3F8FC2077
:100500000D4BF4E74FF40043CBE70C4BC9E70C4B22
:10051000C7E70C4BC5E700BF00800C40041000206B
:1005200008100020003FAB010081E00FC0CF6A003F
:1005300040B5640040420F00804F1200809FD500FC
:10054000C0D8A700406F400108B5FFF799FF044BE2
:100550005B6803F00F03D840024B186008BD00BF72
:1005600000800C4000100020014B1868704700BF4D
:1005700004100020044B1860044BDB6A1B0501D5F6
:10058000FFF7E2BF704700BF0410002000800C405E
:10059000014A024B9A6070470000000000ED00E045
:1005A000014B1868704700BF0810002008B5194BB0
:1005B0005B6903F4E063B3F5407F16D00DD8B3F563
:1005C000807F20D0B3F5007F18D0F3B141F2656190
:1005D000114800F019FF00230EE0B3F5C06F16D0EC
:1005E000B3F5E06FF2D10D4B06E000F0BFFC0C4B11
:1005F0000C4A122898BF1346184608BD00F0B6FCF6
:10060000094B0A4AF5E70A4BF6E70A4BF4E70A4BAF
:10061000F2E700BF00800C4048150000406F400129
:10062000804F120040420F0040B56400C0CF6A0006
:10063000C0D8A700809FD500003FAB01034B5A6D87
:10064000D20702D41A6D1042FCD1704700800C40D2
:1006500008B500F093FC4A2805D0792803D0482833
:1006600018D1104815E010491048D1F8E030D1F801
:10067000E820D1F8EC101B0203F47C53C1F3031102
:1006800002F0F0020B431343064AB3F5017F38BF73
:10069000104608BD064841F2E15100F0B5FE0020C9
:1006A000F7E700BF0048E80100FF0FE000366E01E9
:1006B0004815000010B50446FFF7CAFFA04210D24B
:1006C000FFF7C6FFB4EB400F0ED902220123074902
:1006D0008B6707494B6823F4807343EA02234B601E
:1006E00010BD00221346F2E70122FBE70000904311
:1006F00000800C40134B5B6813F0060F03F00702F9
:10070000114B01D0042A18D1984212D800230F4A65
:100710000F4902448A420AD2002B14BF032301234B
:1007200008494A6822F0070213434B6070475B0098
:10073000F6E70423F4E70523F2E79842FBD8012308
:10074000E5E700BF00000C400048E801FFDB0BFFBD
:100750000024F40070B541F67136064CE56BE66393
:10076000FFF78AFEADB2FFF7C5FFB5421CBF0023FD
:10077000E36370BD00000C4070B541F67136054C66
:10078000E56BE663ADB2FFF7B5FFB5421CBF0023D2
:10079000E36370BD00000C4008B5C0F30313013BD8
:1007A0000C2B5BD8DFE803F0075A5A0D5A5A151E76
:1007B000485A5A5A18002B4B1868C0F3823001303F
:1007C00008BD284B986800F00F00BDE8084000F015
:1007D0001CBE244B5868F6E7224B5868C0F3002033
:1007E0000130F2E7204B984220D00DD81F4B9842A1
:1007F00012D003F58223984213D041F6F8311C48F9
:1008000000F002FE0120DBE71A4B9842F5D1154BB0
:10081000986E00F00300D8E7124B986EC0F30310F7
:10082000D3E7104B986EC0F30320CEE70D4B986EC4
:10083000C0F301300430C8E70F4B984206D003F5EF
:100840000433984205D041F61141D8E7054B186FA3
:10085000DFE7044B186FC0F30110B6E741F618410B
:10086000CDE700BF00800C4080002A0080161200F7
:100870004815000080062E0090071A0070B5C0F3DE
:100880000323013B04460E46092B23D8DFE803F07F
:1008900029051522222C1C22221F0020144DC4F3EE
:1008A000043408B1FFF7CAFE05F1424505F580158D
:1008B00004EBC504A400266070BDFFF745FEFFF7FA
:1008C000F9FE0C4D0020EAE710200B4DE7E7002071
:1008D0000A4DE4E741F67951BDE87040084800F060
:1008E00093BD0020074DDAE70120074DD7E700BF91
:1008F00044800C4040800C4060800C4078800C406C
:100900004815000008800C4058800C4008B500F0E5
:100910000F00013806284CD8DFE800F00414254BFE
:100920004B333B00294BDB6A03F47053B3F5805F14
:100930004AD0B3F5005F45D0B3F5006F14BF052072
:10094000042008BD214A936A03F00303013B022BF4
:1009500002D81F4AD05CF4E7936A13F4803F0CBFBF
:1009600001200A20EDE7194A936A03F00C03082BD3
:1009700028D00C2B24D0042B26D0936A13F4801F8C
:10098000EDE7124B1B6813F0805F0CBF07200920B6
:10099000D7E70E4BDB6A03F46033B3F5803F11D029
:1009A000B3F5003F10D0B3F5004F14BF012009206C
:1009B000C7E7084842F2CA2100F026FD0020C0E740
:1009C0000620BEE70220BCE70320BAE700800C4007
:1009D000771500004815000038B52F4B04469842A3
:1009E00007D02E4B984204D041F6DC012C4800F091
:1009F0000BFD2046FFF78AFF274A054694420DD09B
:100A0000264B9C4215D041F60B11254800F0FCFC0A
:100A1000032D39D8DFE805F03D171B1F214B9B6ADA
:100A200003F00303013B022B1CD8DFE803F00C109A
:100A300014001C4B9B6AC3F38103032B24D8DFE80B
:100A400003F01302060ABDE8384000F0D7BCBDE849
:100A50003840FFF7A5BDFFF777FD134B9C6F0134BE
:100A6000E04038BD944202D00C4B9C4211D10D4B5A
:100A7000986A094B9C420CBF10241424E040F0D02B
:100A8000BDE8384000F0BDBC41F63611044800F026
:100A9000BBFC0020E5E700BF02001E0003002000B1
:100AA0004815000000800C400000904338B500F469
:100AB0007813B3F5E01F054600F087802ED8B3F514
:100AC000801F00F0918018D8B3F5802F50D006D841
:100AD0007BB1B3F5003F53D041F6A9617FE0B3F598
:100AE000602FF9D15048FFF711FF07287CD0092863
:100AF00073D1BDE83840FFF7C3BCB3F5B01F43D096
:100B0000B3F5D01F5BD0B3F5901FE5D14748FFF791
:100B100063FF474B9B6EC3F303132FE0B3F5281F0E
:100B20003AD00DD8B3F5001F47D0B3F5181F5FD0EA
:100B3000B3F5F01FD0D13D48BDE83840FFF74CBFBA
:100B4000B3F5381F31D0B3F5781F63D0B3F5301F3C
:100B5000C2D13648FFF740FF354A936EC3F30133E5
:100B6000D840D36F03F007030133B0FBF3F006E086
:100B7000FFF786FC2E4B9B6803F00F03D84038BD6F
:100B8000BDE83840FFF7E0BC2848FFF725FF284BB9
:100B90009B6EC3F30323F1E72448FFF71DFF244BAB
:100BA0009B6EC3F301330433E8E72048FFF714FFDB
:100BB0001F4B9B6E03F00303E0E71E48BCE71D4894
:100BC000FFF70AFF1A4B1B6FF4E71A48FFF704FF01
:100BD000174B1B6FC3F30113D0E741F29F61164817
:100BE00000F012FC0020CAE7BDE83840FFF7DEBC89
:100BF0001248FFF78BFE032808D009283FF479AF8D
:100C00000228EFD1BDE83840FFF7CABCBDE8384044
:100C100000F0F4BBFFF798FC04462846FFF7BCFD44
:100C2000B4FBF0F0ABE700BF06000E0002001E00B0
:100C300000800C4003002000481500000723260018
:100C400010B504461120FFF761FE042804D142F6D6
:100C50003C210D4800F0D8FB08230C4A13621368AE
:100C6000E17823F4D16323F007030B43617843EA6F
:100C70004123217843EA8103A178002914BF802110
:100C800000210B43136010BD4815000000800C408C
:100C900070B505461120FFF739FE022804D142F64F
:100CA000FA21154800F0B0FB4FF40073134E336285
:100CB0002B78AC7813F0020F14BF4FF400530023CD
:100CC0006A78E40244EA82441C4300F0A2FB3368E1
:100CD0005C4024F07F4424F4730424F4474424F05B
:100CE000FF045C40346000F098FB2B78044A03F06A
:100CF0000103C2F8A03470BD4815000000800C400C
:100D000000008C43014B1880704700BF6E1000201C
:100D1000014B1880704700BF6C10002010B40428ED
:100D200006D80E4B51B90E4A32F810201A6212E062
:100D300042F6C8310B4810BC00F066BB0A490B4CA8
:100D4000095C34F8100018622AB1094B0B449B006F
:100D50001A68002AFCD010BC704700BF00800C400D
:100D60008A150000481500007A1500008015000063
:100D70006001E41008B5FFF76BFC0130FFF79AFC47
:100D8000FFF7F2FB104A114B984213684FF0020034
:100D900096BF23F0600343F0600343F02003136029
:100DA00001221146FFF7BAFFFFF7D4FC0222064BDF
:100DB0005A62FFF7C9FBFFF77DFCFFF7C5FBBDE8F3
:100DC00008400021FFF7D8BC00800C400048E80133
:100DD00010B504798378094923430478CA6A43EA41
:100DE0000443C478407822F4803243EA440322F07A
:100DF0001F0243EA00131343CB6210BD00600C4096
:100E000038B5042804460D4616D9052804D141F604
:100E1000FF73EB40DB0704D440F22D41084800F09B
:100E2000F3FA24200121444304F1804401FA05F53A
:100E300004F5C044256138BD4FF6FF73E9E700BFF4
:100E40009415000038B5042804460D4616D9052827
:100E500004D141F6FF73EB40DB0704D440F2FE31CE
:100E6000084800F0D1FA24200121444304F18044D1
:100E700001FA05F504F5C044656138BD4FF6FF730E
:100E8000E9E700BF94150000F8B5042805460C46B4
:100E900016461F4628D9052804D141F6FF73E340C2
:100EA000DB0704D44FF4B071194800F0ADFA26B155
:100EB00021462846DFB1FFF7A3FF2423072C4FF07C
:100EC0000F0105FB03F315D8A00006FA00F28140DC
:100ED0001048184400F0A4FAC6B9214628468FB13C
:100EE000BDE8F840FFF78CBF4FF6FF73D7E7FFF779
:100EF000A9FFE2E7A4F10800800006FA00F28140B1
:100F00000548E6E7BDE8F840FFF79CBFF8BD00BF25
:100F1000F7150000046000400860004010B504466A
:100F200018B957210F4800F06FFA0F4AD2F8E43091
:100F3000D2F8E0109B0003F03C03C1F381110B4396
:100F4000A370D2F8E03003F03F036370D2F8E830CA
:100F5000D2F8EC2003F0F003C2F303121343237022
:100F600010BD00BF2716000000FF0FE0024BD3F8B2
:100F7000FC00000E704700BF0081E00F024BD3F869
:100F8000FC00C0F3074070470081E00F094B984216
:100F90000DD003F58063984209D003F58063984231
:100FA00005D003F58063C31A5842584170470120A9
:100FB000704700BF000001402DE9F84F05460C4680
:100FC000FFF7E4FF18B9A5212A4800F01DFA21789F
:100FD00009B902236B60002360786B620028607A95
:100FE00014BF4FF040084FF000080028A07A14BF4B
:100FF0004FF0800E4FF0000E0028E07A14BF4FF043
:10100000200C4FF0000C0028207B14BF1027002775
:1010100000282079A378E27894F806A094F8079045
:1010200094F808B0647914BF08260026002814BF7D
:101030004FF400500020002C14BF4FF080540024C7
:10104000120442EA036343EA0B0343EA8A2343EAB6
:10105000092343EA080343EA0E0343EA0C033B4334
:101060003343034323432B6009B101236B60BDE885
:10107000F88F00BF591600002DE9F04180460E465A
:101080001F46154622B94FF4A171304800F0BCF953
:101090001EB92F48FFF70AFD0646402F2AD009D86F
:1010A000A7B1202F1CD040F28911BDE8F04127489C
:1010B00000F0AAB9602FF6D1B5EB960F04D940F233
:1010C0008311224800F0A0F904241DE0B5EB161F9F
:1010D00004D94FF4BA711D4800F096F9102413E0BA
:1010E000B5EBD60F04D940F27911184800F08CF90D
:1010F000082409E00624B6FBF4F3AB4204D24FF413
:10110000BF71124800F080F96C43610801EB86065C
:10111000B6FBF4F40F4E043CB6EB841F4FEA841583
:1011200004D24FF4D071094800F06EF9D8F80030BD
:10113000354023F06003C8F80030D8F800301F4372
:10114000C8F80070C8F81450BDE8F0818A16000095
:1011500040810400C0FF1F0038B5104B0446984280
:101160000D4614D003F58063984210D003F58063D8
:1011700098420CD003F5C053984208D003F5806321
:10118000984204D04FF43371054800F03DF9EB4329
:101190005B0003F00A03E360E56038BD00C0004077
:1011A0008A16000010B51B4B0446984214D003F574
:1011B0008063984210D003F5806398420CD003F509
:1011C000C053984208D003F58063984204D040F29F
:1011D0004241114800F018F940F6AA6341F20502B5
:1011E000E36000232360626041F6F972A3606361EB
:1011F000E364A264074A6365944208BF2365A3655C
:10120000064B9C4203D003F580639C4201D100232E
:10121000E36510BD00C000408A16000000C4004015
:1012200038B5224B044698420D4614D003F580632E
:10123000984210D003F5806398420CD003F5C05358
:10124000984208D003F58063984204D040F2FD2113
:10125000174800F0D9F82046FFF7A4FFAB7C1BB17C
:10126000236843F080432360EB7C1BB12B7D43F06C
:101270001003A3652A8A6B7B20461343EA89134334
:1012800063602B7BD5E90112FFF7F6FE6B7D1BB186
:10129000236843F480332360AB7D1BB1236843F4A0
:1012A000004323602B78E36038BD00BF00C00040DE
:1012B0008A16000007B5064B18681B79009068462F
:1012C0008DF80430FFF784FD002003B05DF804FBC7
:1012D000BB16000007B5084B186801900748FFF7D8
:1012E00049F901A8FFF7ACFC4FF4FA70FFF710FDC5
:1012F000002003B05DF804FBC0160000006CDC02A7
:1013000010B56FF00402A0210A480B4C12F0800FB8
:10131000D3B21BBF03F00F03043BA3181B1802F149
:1013200001020CBF83F800131976272AEED10020A2
:1013300010BD00BF00ED00E000E100E008B5074B84
:10134000044613B10021AFF30080054B1868836A8F
:1013500003B19847204600F029F800BF00000000C4
:10136000C416000070B500260C4D0D4C641BA41073
:10137000A64209D100F096F800260A4D0A4C641BDB
:10138000A410A64205D170BD55F8043B984701361C
:10139000EEE755F8043B98470136F2E7701000205D
:1013A000701000207010002074100020FEE700BFB5
:1013B000FEF7F2BE00F013B808B500F052F8FFF7E0
:1013C000F7FF00F05BF8FFF7F5FFFAE710B5441EF2
:1013D00014F8010F00B910BDFEF78AFFF8E7FEF719
:1013E000A7BF7047704700F006B870477047704756
:1013F0007047704770470F207047FEE74FF400407A
:1014000070474FF47A707047FEE7012303FA00F04B
:101410007047EFF3108072B6704700B962B670473C
:1014200070B5054614460E46FFF7F3FF29684C4099
:1014300034404C402C60BDE87040FFF7EEBF13B560
:101440000024032301A88DF805308DF804408DF8A1
:101450000640FFF71DFC6420FFF754FC204602B055
:1014600010BD08B5FEF792FFFFF7BCFFFFF7BBFF0B
:10147000FFF7BBFFBDE80840FFF7B8BF08B5FFF7AF
:10148000B6FFFFF7B5FFFFF7B4FFBDE80840FFF771
:10149000B1BF03460244934200D1704703F8011BD9
:1014A000F9E70000F8B500BFF8BC08BC9E467047DD
:1014B000F8B500BFF8BC08BC9E467047433A5C557F
:1014C000736572735C636F6C696E5C53696D706C8D
:1014D000696369747953747564696F5C76355F7795
:1014E0006F726B73706163655C554152545F434327
:1014F000335C6765636B6F5F73646B5F342E332E91
:10150000305C706C6174666F726D5C656D6C696285
:101510005C696E632F656D5F74696D65722E68001E
:1015200048656C6C6F2C55415254210D0A00000027
:10153000050000000000000000C2010000050000DE
:1015400000100000000000002E2E2F6765636B6FF7
:101550005F73646B5F342E332E302F706C61746652
:101560006F726D2F656D6C69622F7372632F656D7D
:101570005F636D752E630003020609070301050012
:10158000000140000400010010000002800008007B
:1015900002002000433A5C55736572735C636F6CA4
:1015A000696E5C53696D706C6963697479537475A5
:1015B00064696F5C76355F776F726B7370616365BA
:1015C0005C554152545F4343335C6765636B6F5FA7
:1015D00073646B5F342E332E305C706C6174666F95
:1015E000726D5C656D6C69625C696E632F656D5FC1
:1015F0006770696F2E68002E2E2F6765636B6F5FB3
:1016000073646B5F342E332E302F706C6174666F91
:10161000726D2F656D6C69622F7372632F656D5FDC
:101620006770696F2E63002E2E2F6765636B6F5F87
:1016300073646B5F342E332E302F706C6174666F61
:10164000726D2F656D6C69622F7372632F656D5FAC
:1016500073797374656D2E63002E2E2F6765636B2F
:101660006F5F73646B5F342E332E302F706C617438
:10167000666F726D2F656D6C69622F7372632F6573
:101680006D5F74696D65722E63002E2E2F67656322
:101690006B6F5F73646B5F342E332E302F706C6111
:1016A00074666F726D2F656D6C69622F7372632F34
:1016B000656D5F75736172742E6300000000010137
:0816C000030300000C100020E0
:0816C80054EAFF7F010000005D
:0C16D000DC160000001000201E000000CE
:1016DC00809FD500006CDC02008000000000000040
:1016EC0000000000000000000000000000000000EE
:1016FC0000000000000000000000000000000000DE
:10170C0000000000000000000000000000000000CD
:10171C0000000000000000000000000000000000BD
:10172C0000000000000000000000000000000000AD
:10173C00000000000000000000000000FFFFFFFFA1
:08174C0001010000DD000000B6
:0400000300000419DC
:00000001FF
